:20006D00AC82AD83AEF0FFEC4D4E4F60221CBCFF091DBDFF051EBEFF011FC007C006C00515
:1B008D00C00412009DD004D005D006D00780D82200007F707E3ADFFEDEFC2295
:0400000002001132B7
:03000B000200E010
:03006A0002000E83
:03000E000200A845
:2000A8001200C2759300759400C281D2AFB281900001E4F5F012006D80F375BA8090FE00D3
:1800C800E4F0F5BA22438E805389F0758A9A758CA9D28CD2A9D2AF229F
:0300E000B28132B8
:1E00E30053A2FB53A2F775CE5143CDC0D2AF228582CFE5CD30E7FB43CDC085CF8222BA
:06004000E478FFF6D8FD94
:20001E007900E94400601B7A00900105780175A000E493F2A308B8000205A0D9F4DAF27582
:02003E00A0FF21
:200046007800E84400600A790175A000E4F309D8FC7800E84400600C7900900001E4F0A3B8
:04006600D8FCD9FAEF
:0D001100758107120101E582600302000EF7
:0401010075820022E1
:00000001FF
